:020000040801F1
:10000000000002203D1E0108790701087B07010856
:100010007D0701087F070108810701080000000033
:10002000000000000000000000000000830701083D
:1000300085070108000000008707010889070108FB
:100040008D1E01088D1E01088D1E01088D1E0108E0
:100050008D1E01088D1E01088D1E01088D1E0108D0
:100060008D1E01088D1E01088D1E01088D1E0108C0
:100070008D1E01088D1E01088D1E01088D1E0108B0
:100080008D1E01088D1E01088D1E01088D1E0108A0
:100090008D1E01088D1E01088D1E01088D1E010890
:1000A0008D1E01088D1E01088D1E01088D1E010880
:1000B0008D1E01088D1E01088D1E01088D1E010870
:1000C0008D1E01088D1E01088D1E01088D1E010860
:1000D0008D1E01088D1E01088D1E01088D1E010850
:1000E0008D1E01088D1E01088D1E01088D1E010840
:1000F0008D1E01088D1E01088D1E01088D1E010830
:100100008D1E01088D1E01088D1E01088D1E01081F
:100110008D1E01088D1E01088D1E01088D1E01080F
:100120008D1E01088D1E01088D1E01088D1E0108FF
:100130008D1E01088D1E01088D1E01088D1E0108EF
:100140008D1E01088D1E01088D1E010891070108F2
:100150008D1E01088D1E01088D1E01088D1E0108CF
:100160008D1E01088D1E01088D1E01088D1E0108BF
:100170008D1E01088D1E01088D1E01080000000063
:080180008D1E01088D1E01080F
:1001880010B5054C237833B9044B13B10448AFF3C9
:1001980000800123237010BD0C0000200000000027
:1001A800E81E010808B5034B1BB103490348AFF328
:1001B800008008BD0000000010000020E81E0108B3
:1001C80053B94AB9002908BF00281CBF4FF0FF31B6
:1001D8004FF0FF3000F072B9ADF1080C6DE904CEB4
:1001E80000F006F8DDF804E0DDE9022304B070470A
:1001F8002DE9F047089E04468846002B4BD18A42D9
:10020800154667D9B2FA82F24AB1C2F1200701FA5B
:1002180002F320FA07F7954047EA030894404FEAAB
:10022800154E230CB8FBFEF71FFA85FC0EFB17884A
:1002380043EA084307FB0CF1994209D9EB1807F187
:10024800FF3080F01B81994240F21881023F2B4415
:100258005B1AA4B2B3FBFEF00EFB103344EA03446E
:1002680000FB0CFCA44509D92C1900F1FF3380F0E0
:100278000781A44540F2048102382C4440EA074033
:10028800A4EB0C0400271EB1D4400023C6E90043A8
:100298003946BDE8F0878B4209D9002E00F0EB8083
:1002A8000027C6E9000138463946BDE8F087B3FAA9
:1002B80083F7002F47D18B4202D3824200F2FA80A3
:1002C800841A61EB030301209846002EE0D0C6E9AA
:1002D8000048DDE702B9FFDEB2FA82F2002A40F0F8
:1002E8008F80491B4FEA154E1FFA85F80127B1FB8D
:1002F800FEFC230C0EFB1C1143EA014308FB0CF126
:10030800994207D9EB180CF1FF3002D2994200F25A
:10031800CD808446591AA3B2B1FBFEF00EFB10142F
:1003280043EA044408FB00F8A04507D92C1900F15A
:10033800FF3302D2A04500F2B6801846A4EB0804A9
:1003480040EA0C409FE7C7F1200CBB4022FA0CFEA4
:100358004EEA030E01FA07F420FA0CF521FA0CF321
:100368004FEA1E482543B3FBF8F92C0C08FB193358
:100378001FFA8EFA44EA034309FB0AF49C4202FA84
:1003880007F200FA07F10BD91EEB030309F1FF305E
:1003980080F087809C4240F28480A9F1020973446E
:1003A8001B1BADB2B3FBF8F008FB103345EA03445E
:1003B80000FB0AFAA24508D91EEB040400F1FF333A
:1003C8006BD2A24569D90238744440EA0940A0FBBF
:1003D8000289A4EB0A044C45C2464B4654D351D07B
:1003E800002E69D0B1EB0A0564EB030404FA0CFC97
:1003F800FD40FC404CEA0505C6E90054002747E7E4
:10040800C2F1200320FA03F7954001FA02F021FA1D
:1004180003F34FEA154E3843010CB3FBFEF71FFAFE
:1004280085F80EFB173341EA034107FB08F38B42BB
:1004380004FA02F407D9691807F1FF3C2FD28B425E
:100448002DD9023F2944CB1A81B2B3FBFEF00EFB33
:10045800103341EA034100FB08F38B4207D96918BE
:1004680000F1FF3C17D28B4215D902382944C91A2A
:1004780040EA07473BE73746304609E70746E7E6DD
:100488001846FBE64145ABD2B8EB020A69EB0E020F
:1004980001381346A4E76046E9E7184695E767463A
:1004A800D1E781467CE702382C4447E7ACF1020CDF
:1004B8002B442FE7384608E73746E9E6704700BF80
:1004C8002DE9F04F8DB000240794089409940A94FC
:1004D8000B940194564B1A6B42F010021A631A6B74
:1004E80002F010020192019A02941A6B42F004027F
:1004F8001A631A6B02F004020292029A03941A6BAE
:1005080042F080021A631A6B02F080020392039A87
:1005180004941A6B42F001021A631A6B02F001028A
:100528000492049A05941A6B42F002021A631A6B39
:1005380002F002020592059A06941A6B42F008022C
:100548001A631B6B03F008030693069B394E224679
:100558000821304600F0D2FADFF8E0900122114677
:10056800484600F0CBFADFF8D88022464FF2100157
:10057800404600F0C3FA0827079701250895099413
:100588000A9407A9304600F0D5F90795089509940B
:100598000A9407A9484600F0CDF90797022708975B
:1005A80009940A944FF0050ACDF82CA007A94846EB
:1005B80000F0C0F90795DFF88C90CDF820900994E9
:1005C80007A91D4800F0B6F9042307930894099475
:1005D800DFF874B007A9584600F0ACF94FF480630F
:1005E8000793089709940A94CDF82CA007A95846B0
:1005F80000F0A0F94FF210030793089509940A94A4
:1006080007A9404600F096F9202307930894099417
:1006180007A9404600F08EF90797CDF82090099475
:1006280007A9304600F086F90DB0BDE8F08F00BF8D
:10063800003802400010024000000240000802405A
:10064800000C0240000012100004024070B598B07F
:10065800302200210DEB020001F03AFC002407943F
:10066800089409940A940B940394049405940694AA
:100678000194204B1A6C42F080521A641B6C03F0F0
:1006880080530193019B02941B4B1A6842F48042E9
:100698001A601B6803F480430293029B01260C96A0
:1006A8004FF480330D93022512954FF48003139372
:1006B800082314934FF4A8731593169507231793DB
:1006C8000CA800F067FE0F230793089509944FF4D0
:1006D800A0530A934FF480530B93052107A801F008
:1006E800BBF80396C0230493059503A801F064F9A9
:1006F80018B070BD003802400070004008B500F026
:100708007DF8FFF7A3FFFFF7DBFE084C4FF400412D
:10071800204600F0F9F94FF48051204600F0F4F932
:100728004FF4967000F096F8EFE700BF000C024017
:1007380000B583B0002100910C4B5A6C42F4804202
:100748005A645A6C02F480420092009A01911A6C21
:1007580042F080521A641B6C03F080530193019B92
:10076800072000F08BF803B05DF804FB0038024066
:100778007047FEE7FEE7FEE7FEE770477047704701
:1007880008B500F055F808BD08B5024800F04CFD62
:1007980008BD00BF2C000020044BD3F8882042F489
:1007A8007002C3F88820024A9A60704700ED00E0A2
:1007B8000000010810B504460E4B18784FF47A7300
:1007C800B3FBF0F30C4A1068B0FBF3F000F09CF8B0
:1007D80068B90F2C01D901200AE0002221464FF008
:1007E800FF3000F05DF8034B5C60002000E0012062
:1007F80010BD00BF040000200000002008B50B4B0E
:100808001A6842F400721A601A6842F480621A6028
:100818001A6842F480721A60032000F02FF8002052
:10082800FFF7C8FFFFF784FF002008BD003C024027
:10083800034A1168034B1B780B441360704700BFD1
:100848002800002004000020014B1868704700BFF2
:100858002800002038B50446FFF7F6FF0546B4F136
:10086800FF3F02D0044B1B781C44FFF7EDFF401BF1
:10087800A042FAD338BD00BF04000020074AD3685D
:1008880023F4E0631B041B0C000200F4E06018432F
:1008980040F0BF6040F40030D060704700ED00E0E9
:1008A80030B4174BDB68C3F30223C3F10704042CED
:1008B80028BF04241D1D062D18D9033B4FF0FF3512
:1008C80005FA04F421EA0401994005FA03F322EA3F
:1008D8000303194300280BDB0901C9B200F160408A
:1008E80000F5614080F8001330BC70470023E5E74D
:1008F80000F00F000901C9B2024B1954F4E700BF18
:1009080000ED00E014ED00E00138B0F1807F0AD27C
:10091800064B5860064AF02182F8231000209860A0
:1009280007221A6070470120704700BF10E000E0FE
:1009380000ED00E000230F2B00F2D780F0B583B064
:1009480039E0072200E00022AA403A430234674D0A
:1009580045F82420664A1468F24302EA04054F6801
:1009680017F4803F01D046EA0405614C25606468AD
:1009780002EA04054F6817F4003F01D046EA04056F
:100988005B4C6560A46802EA04054F6817F4801F91
:1009980001D046EA0405564CA560E46822404D683B
:1009A80015F4001F01D046EA0402514CE2600133FD
:1009B8000F2B00F2988001229A400C6804EA020684
:1009C800B242F4D14C68651E012D03D9112C01D017
:1009D800122C12D185685F000324BC4025EA040567
:1009E800CC68BC402C438460456825EA02054C6805
:1009F800C4F300129A402A434260C4685F0003228D
:100A0800BA40D24314408D68BD402543C5604C6848
:100A1800022C01D0122C13D1DD08083550F825E03E
:100A280003F007044FEA840C0F2404FA0CF42EEAAE
:100A3800040E0C6904FA0CF444EA0E0440F825404C
:100A4800046822404C6804F00304BC40224302605E
:100A58004A6812F0805FAAD000220192254A546C9D
:100A680044F480445464526C02F480420192019A26
:100A78009C08A51C1D4A52F8257003F00302950036
:100A88000F22AA4027EA02071B4A90423FF45BAFB5
:100A980002F5806290421AD002F58062904218D026
:100AA80002F58062904216D002F58062904214D01E
:100AB80002F58062904212D002F58062904210D016
:100AC80002F5806290423FF43CAF08223CE70122E5
:100AD8003AE7022238E7032236E7042234E7052200
:100AE80032E7062230E703B0F0BD70470038014016
:100AF800003C0140003802400000024012B90904DD
:100B08008161704781617047436931EA030301D00D
:100B1800816170470904816170470000F8B5066873
:100B2800346A04F00F07C4F34343C4F30A14022BD6
:100B38002ED16CB307EB8702D3000344596C39B349
:100B480005462246304601F013F8BA003A44D3006D
:100B58002B445A6C22445A64DA6C2244DA6406EB59
:100B68004713D3F810150B4A0A408AB1D3F8002569
:100B780022F0804242F00042C3F80025BB00D91998
:100B8800CA002A4492F8503083F0010382F85030AA
:100B9800F8BD00BF0000F81F30B583B005460468F3
:100BA800D4F840340193D4F840340093009B23F0E8
:100BB8002E030093019B13F0020F07D0019B13F043
:100BC800010F25D1009B43F002030093019B13F012
:100BD800080F10D0009B43F008030093019B13F00B
:100BE800040F2DD0AB69022B15D0EB68012B22D056
:100BF800284601F001F9019B13F0200F03D0009B58
:100C080043F020030093009BC4F8403403B030BD88
:100C180001F0E5F8D6E7019B03F4C023B3F5802F74
:100C280004D00121286800F0BFFFE1E7022128680D
:100C380000F0BAFFDCE74EF66022C4F80424D7E7D8
:100C4800284601F0DFF8D6E7F8B506460D460768EE
:100C580007EB411707F5A064A36813F0040F40D011
:100C68000423A360E36843F00203E360A36813F47A
:100C7800007F40F08280A36813F0010F00F0B0807D
:100C880033694BB1AA002A44D30033449A6C2169D2
:100C9800C1F31201521ADA64AA002A44D300334479
:100CA800012283F85D2000219965A26093F83F3006
:100CB800002B6ED0022B6CD0032B7FD0012B72D16E
:100CC800AA002A44D3003344012283F85C2093F815
:100CD8005010514083F850102946304601F08BF8E7
:100CE80061E0A36813F4807F06D1A36813F0200F96
:100CF80014D02023A360B9E74FF48073A36001EBFD
:100D08008102D3000344072283F85D20E36843F09F
:100D18000203E360006800F06CFFA7E7A36813F024
:100D2800080F17D1A36813F4806F9FD0E36843F0CE
:100D38000203E360006800F05CFF1023A36005EB8A
:100D48008502D3003344082283F85D204FF4806382
:100D5800A3608BE7E36843F00203E36001EB8102E1
:100D6800D3000344052283F85D201023A3600823E1
:100D7800A360006800F03DFF78E7E36843F00203F2
:100D8800E3602946306800F034FF4FF40073A36035
:100D980013E0E36843F00203E3602946306800F09B
:100DA80028FF1023A360AB005919CA00324492F8F7
:100DB800503083F0010382F85030F8BDD7F8003581
:100DC80043F00053C7F8003505EB8502D3003344E0
:100DD800012283F85C202946304601F00CF8E2E74E
:100DE800A36813F0020F6FD0E36823F00203E360F7
:100DF80005EB8502D300334493F85D30012B14D002
:100E0800052B26D0062B2CD0082B2AD0032B4BD011
:100E1800072B11D1AA002A44D30033449A6D01321A
:100E28009A65042283F85C2006E005EB8502D3006E
:100E38003344012283F85C200223A36005EB85027A
:100E4800D300334493F85C202946304600F0D3FFA2
:100E5800B3E705EB8502D3003344052283F85C2011
:100E6800EAE7AA002A44D30033449A6D01329A650E
:100E7800032A11D9AA002A44D300334400229A65D0
:100E8800042283F85C20D7F8003523F0804343F030
:100E98000043C7F80035CFE705EB8502D30033449C
:100EA800022283F85C20EEE705EB8502D300334489
:100EB800022283F85C20D7F8003523F0804343F002
:100EC8000043C7F80035B7E7A36813F0800F1AD1BD
:100ED800A36813F0100F3FF470AF05EB8502D30041
:100EE800334493F83F30032B25D00BB1022B07D1A5
:100EF80005EB8502D300334400229A6533694BB36E
:100F08001023A36059E7E36843F00203E360AB00F2
:100F18005919CA003244916D013191652B44DA00A8
:100F28003244062382F85D302946306800F061FEBD
:100F38008023A36041E705EB8502D30033440022F8
:100F48009A65E36843F00203E3602946306800F0DD
:100F580050FED5E705EB8502D3003344032283F81E
:100F68005D20E36843F00203E3602946306800F03F
:100F780040FEC5E7F8B5036803EB411303F5A06429
:100F8800A26812F0040F24D10E460546A26812F09A
:100F9800200F25D02023A36001EB8102D3001A463D
:100FA800034493F83D30012B19D18B0002440021F2
:100FB80082F83D103344DA000244022382F85C30A0
:100FC800E36843F00203E3603146006800F011FE75
:100FD80005E00423A360E36843F00203E360F8BD7F
:100FE800A26812F0400F34D1A26812F4007F4AD1EF
:100FF800A26812F0010F51D1A26812F0080F62D155
:10100800A26812F0100F6FD08A000A44D30003447C
:1010180000229A65032283F85D2093F83D306BB96E
:1010280001EB8102D300034493F83C3033B901EB60
:101038008102D3000344012283F83D20E36843F092
:101048000203E3603146286800F0D3FD1023A36053
:10105800C5E78B005918CA000244042182F85D10C4
:10106800012182F83D103344DA00024400239365DD
:10107800E36843F00203E3603146006800F0B9FD1D
:101088004023A360ABE7E36843F00203E360006832
:1010980000F0AFFD4FF40073A360A0E78F007A184B
:1010A800D300034400229A65E36843F00203E36037
:1010B800006800F09EFD0123A360B919C800284408
:1010C80080F85D308BE70823A360E36843F00203F0
:1010D800E360006800F08DFD06EB8601C800284437
:1010E800052380F85D307AE7A26812F0800F39D1C5
:1010F800A26812F4806F46D1A26812F0020F3FF482
:101108006EAFE26822F00202E26001EB8101CA00E0
:101118001146024492F85D20012A48D0032A5AD089
:10112800042A6CD0052A72D0062A01D0082A59D17F
:10113800B1003144CA002A44916D013191650329F7
:101148006BD9282202FB065200219165042182F8FE
:101158005C10D3F8002522F0804242F00042C3F828
:1011680000253FE0E36843F00203E360006800F015
:1011780040FD06EB8601CB002B44062283F85D2058
:101188008023A3602BE7E36843F00203E360006871
:1011980000F02FFD1023A3604FF48063A36006EBDB
:1011A8008601CB002B44082283F85D2017E70B4605
:1011B8000344012283F85C2093F83F30023BDBB202
:1011C80093420FD80B46034493F8512082F0010252
:1011D80083F8512006E006EB8602D300034402227E
:1011E80083F85C200223A36006EB8602D3002B441D
:1011F80093F85C203146284600F0FDFDEFE606EB4B
:101208008602D3000344022283F85C20EAE72823FD
:1012180003FB060383F85C20E4E7282202FB06525E
:10122800022182F85C1094E7F8B504460568284660
:1012380000F0B6FC012800D0F8BD206800F0ACFC36
:101248000028F9D0206800F0A7FC10F4001F03D094
:1012580023684FF400125A61206800F09DFC10F4D6
:10126800801F03D023684FF480125A61206800F071
:1012780093FC10F0806F03D023684FF080625A61AE
:10128800206800F089FC10F0020F02D023680222C7
:101298005A61206800F080FC10F0005F08D02368D5
:1012A8004FF000525A61D5F8403413F0010F25D0A1
:1012B800206800F071FC10F0807F27D1206800F0D2
:1012C8006BFC10F0080F25D1206800F065FC10F0C9
:1012D800007F26D1206800F05FFC10F0100FABD023
:1012E8002268936923F0100393612046FFF716FCE8
:1012F8002268936943F0100393619DE7204600F04C
:1013080074FD0121206800F04FFCD1E72046FFF76B
:1013180043FCD3E7204600F05CFD236808225A61AD
:10132800D2E7206800F060FC0746002604E0F1B22E
:101338002046FFF71FFE0136A368B34212D906F014
:101348000F0327FA03F313F0010FF4D005EB46134C
:10135800D3F8003513F4004FE9D0F1B22046FFF777
:1013680073FCE8E723684FF000725A61B2E790F81F
:10137800B832012B0BD010B50446012380F8B832DF
:10138800006800F09EFC002084F8B80210BD02201E
:1013980070470000002800F0E48170B582B0044670
:1013A800036813F0010F3BD0A74B9B6803F00C03B5
:1013B800042B2CD0A44B9B6803F00C03082B21D0E2
:1013C8006368B3F5803F4FD0B3F5A02F52D09E4B42
:1013D8001A6822F480321A601A6822F480221A608D
:1013E8006368002B50D0FFF72FFA0546964B1B6811
:1013F80013F4003F14D1FFF727FA401B6428F5D9EE
:101408000320B3E1904B5B6813F4800FD8D08E4B68
:101418001B6813F4003F03D06368002B00F0A3811E
:10142800236813F0020F55D0874B9B6813F00C0FFD
:101438003ED0854B9B6803F00C03082B33D0E36840
:10144800002B68D0814B01221A60FFF7FDF9054691
:101458007D4B1B6813F0020F54D1FFF7F5F9401BC1
:101468000228F5D9032081E1774A136843F48033D1
:101478001360B5E7744B1A6842F480221A601A6840
:1014880042F480321A60ABE7FFF7DEF905466E4B8F
:101498001B6813F4003FC3D0FFF7D6F9401B64283C
:1014A800F5D9032062E1684B5B6813F4800FC6D15D
:1014B800654B1B6813F0020F04D0E368012B01D0C1
:1014C800012053E1604A136823F0F803216943EAD5
:1014D800C1031360236813F0080F40D0636963B336
:1014E8005B4B01221A60FFF7AFF90546564B5B6F5D
:1014F80013F0020F33D1FFF7A7F9401B0228F5D9E3
:10150800032033E1504A136823F0F803216943EAC2
:10151800C1031360DEE74D4B00221A60FFF794F910
:101528000546494B1B6813F0020FD3D0FFF78CF91F
:10153800401B0228F5D9032018E1454B00221A6008
:10154800FFF782F90546404B5B6F13F0020F06D098
:10155800FFF77AF9401B0228F5D9032006E1236832
:1015680013F0040F79D0384B1B6C13F0805F33D124
:1015780000230193344B1A6C42F080521A641B6C9E
:1015880003F080530193019B0125324B1B6813F430
:10159800807F23D0A368012B34D0052B38D02A4B69
:1015A8001A6F22F001021A671A6F22F004021A67F2
:1015B800A368002B36D0FFF747F90646224B1B6F6E
:1015C80013F0020F48D1FFF73FF9801B41F288332F
:1015D8009842F3D90320C9E00025D6E71D4A1368CD
:1015E80043F480731360FFF72FF90646194B1B6805
:1015F80013F4807FCED1FFF727F9801B0228F5D995
:101608000320B3E0104A136F43F001031367CFE7D9
:101618000D4B1A6F42F004021A671A6F42F001026A
:101628001A67C5E7FFF710F90646074B1B6F13F05B
:10163800020F11D0FFF708F9801B41F28833984256
:10164800F3D9032092E000BF00380240000047426F
:10165800800E474200700040EDB9A369002B00F0EE
:101668008480454A926802F00C02082A51D0022B65
:1016780017D0424B00221A60FFF7E6F804463E4BAB
:101688001B6813F0007F42D0FFF7DEF8001B02282A
:10169800F5D903206AE0384A136C23F080531364A9
:1016A800DBE7364B00221A60FFF7CEF80546324BCF
:1016B8001B6813F0007F06D0FFF7C6F8401B02280E
:1016C800F5D9032052E0E369226A1343626A43EAC8
:1016D8008213A26A5208013A43EA0243E26A43EAE1
:1016E8000263254A5360254B01221A60FFF7ACF8C4
:1016F8000446214B1B6813F0007F06D1FFF7A4F8BE
:10170800001B0228F5D9032030E000202EE000203D
:101718002CE0012B2CD0184B5B6803F48001E269A4
:10172800914201D0012021E003F03F02216A8A4260
:1017380001D001201AE0616A47F6C0721A408A4255
:1017480001D0012012E003F44032A16A8A4201D09C
:1017580001200BE003F07063E26A93420AD0012093
:1017680004E001207047012000E0002002B070BDB5
:101778000120FBE70020F9E70038024060004742FB
:10178800324B9B6803F00C03042B5CD0082B01D070
:101798002F4870472DE9F04B2C4B5A6802F03F0256
:1017A8005B6813F4800F2BD0284B5B68C3F3881356
:1017B8001E4600275C010025E41A65EB0705A90110
:1017C80041EA9461A001001B61EB0501CB0043EAEB
:1017D8005073C400A01943EB07014B0243EAD053EE
:1017E8004402204619460023FEF7EAFC174B5B68C3
:1017F800C3F3014301335B00B0FBF3F0BDE8F08BAA
:10180800124B5B68C3F388131E4600275C01002552
:10181800E41A65EB0705A90141EA9461A001001BE0
:1018280061EB0501CB0043EA5073C400A01943EBF8
:1018380007018B0243EA905384022046194600238D
:10184800FEF7BEFCD2E70348704700BF00380240ED
:101858000024F40000127A00002800F09E8070B581
:101868000446504B1B6803F00F038B4209D2CBB2DE
:101878004C4A1370136803F00F038B4201D0012008
:1018880070BD236813F0020F17D013F0040F04D0B3
:10189800454A936843F4E0539360236813F0080FB4
:1018A80004D0414A936843F4604393603E4A936886
:1018B80023F0F003A068034393600D46236813F0F8
:1018C800010F32D06368012B21D09A1E012A25D935
:1018D800354A126812F0020F61D033498A6822F043
:1018E800030213438B60FEF7AFFF06462E4B9B683F
:1018F80003F00C036268B3EB820F16D0FEF7A4FF67
:10190800801B41F288339842F0D90320B8E7264A71
:10191800126812F4003FE0D10120B1E7224A1268B0
:1019280012F0007FD9D10120AAE71E4B1B6803F0F3
:101938000F03AB4209D9EAB21A4B1A701B6803F0BD
:101948000F03AB4201D001209AE7236813F0040F7C
:1019580006D0154A936823F4E053E1680B4393607B
:10196800236813F0080F07D00F4A936823F46043E5
:10197800216943EAC1039360FFF702FF0A4B9B68A2
:10198800C3F30313094AD35CD840094B1860094BC9
:101998001868FEF70FFF002072E70120704701204A
:1019A8006EE700BF003C024000380240001F0108FB
:1019B800000000200800002030B583B0044603680A
:1019C80013F0050F06D1236813F0020F2ED1002063
:1019D80003B030BD494B00221A60FEF735FF0546BB
:1019E800474B1B6813F0006F06D0FEF72DFF401B16
:1019F8000228F5D90320EBE76268A3681B0743EACE
:101A080082133F4AC2F884303C4B01221A60FEF729
:101A18001BFF05463A4B1B6813F0006FD3D1FEF746
:101A280013FF401B0228F5D90320D1E700230193B7
:101A3800334B1A6C42F080521A641B6C03F08053CB
:101A48000193019B2F4A136843F480731360FEF7D8
:101A5800FBFE05462B4B1B6813F4807F06D1FEF76F
:101A6800F3FE401B0228F5D90320B1E7244B1B6F76
:101A780013F4407312D0E26802F440729A420DD017
:101A88001F4B1A6F22F440721F4901200860002082
:101A980008601A671B6F13F0010F13D1E36803F492
:101AA8004072B2F5407F1ED0154A936823F4F813AC
:101AB800936013490B6FE268C2F30B0213430B6781
:101AC800002085E7FEF7C0FE05460D4B1B6F13F09F
:101AD800020FE3D1FEF7B8FE401B41F2883398426B
:101AE800F3D9032074E706498A6822F4F81223F030
:101AF800704323F4407313438B60DAE7680047426E
:101B08000038024000700040400E4742836843F0AE
:101B18000103836000207047836823F0010383601A
:101B280000207047890141F0200101610023013341
:101B3800054A934205D8026912F0200FF7D1002018
:101B480070470320704700BF400D03001023036156
:101B580000230133054A934205D8026912F0100F99
:101B6800F7D1002070470320704700BF400D0300E5
:101B780003329208002393420CD210B400F580542B
:101B8800246841F8044B01339342F7D308465DF8C3
:101B9800044B704708467047426980691040704797
:101BA800406900F00100704710B400F58064D0F877
:101BB800003423F00303C0F80034D0F8003401F0F7
:101BC80003021343C0F80034012905D0022907D0C5
:101BD80000205DF8044B70474BF680336360F7E7ED
:101BE80041F270736360F3E700F58060406980B28A
:101BF800704710B400EB411101F5A064D1F800352D
:101C0800C3F381433BB3022B25D0D1F8003543F011
:101C18008043C1F80035D0F8103413F47F0F49D150
:101C2800D1F8003523F00043C1F80035D1F800356C
:101C380043F00043C1F80035D1F8003523F40043E0
:101C4800C1F8003500230133B3F57A7F27D822681D
:101C5800002AF8DB23E0D1F8003543F08043C1F8CF
:101C68000035C36A13F47F0F1DD1D1F8003523F076
:101C78000043C1F80035D1F8003543F00043C1F8FE
:101C88000035D1F8003523F40043C1F800350023AE
:101C98000133B3F57A7F02D82268002AF8DB0020E6
:101CA8005DF8044B7047D1F8003543F00043C1F8A4
:101CB8000035F4E7D1F8003543F00043C1F80035AA
:101CC800EDE770B505460446FFF726FF10212846C4
:101CD800FFF728FF2846FFF739FF00220AE004EB48
:101CE8004211D1F8003523F0802343F08043C1F836
:101CF800003501320F2AF2D90020034600E00130F6
:101D08000F2813D804EB401606F5A061D6F8002575
:101D180022F4004242F04042C6F800250133B3F5F0
:101D28007A7FECD80A68002AF8DBE8E74FF0FF333F
:101D3800C5F814346B612846FFF7E8FE002070BD33
:101D480008B50378DBB20B2B00D008BDD0F87C3384
:101D5800002BFAD09B699847F7E708B5D0F8C43349
:101D68000133C0F8C433FFF7EBFF08BD012380F847
:101D780023337047002380F823337047012380F80A
:101D88002033002380F8213380F822331846704727
:101D980038B50446012380F82133002580F8205304
:101DA80080F8235300F03DF82179204600F006F82A
:101DB8006179204600F002F8284638BD0A2906D87D
:101DC800E03100EB81014B68C3F30E034B60002048
:101DD800704708B5D0F8C002FFF7BFFF08BD08B5C7
:101DE800D0F8C002FFF7CAFF08BD08B5D0F8C00296
:101DF800FFF7CEFF08BD704708B5D0F8C002FFF75F
:101E0800B5FF08BD08B5D0F8C002FFF7B3FF08BD9D
:101E180018B1022803D00220704700207047012023
:101E2800704708B5D0F8D003FFF7A1FAFFF7F0FF25
:101E380008BD0000DFF834D0002103E00C4B5B58EC
:101E4800435004310B480C4B42189A42F6D30B4AC4
:101E580002E0002342F8043B094B9A42F9D3FEF70B
:101E68009BFC00F011F8FEF749FC704700000220C7
:101E7800281F0108000000200C0000200C00002092
:101E8800F0020020FEE7000070B50D4E0D4CA41BBB
:101E9800A4100025A54209D10B4E0C4C00F020F8E7
:101EA800A41BA4100025A54205D170BD56F8253005
:101EB80098470135EEE756F8253098470135F2E79F
:101EC800201F0108201F0108201F0108241F0108E6
:101ED80002440346934200D1704703F8011BF9E717
:101EE800F8B500BFF8BC08BC9E467047F8B500BFFF
:081EF800F8BC08BC9E467047CF
:101F000000000000000000000102030406070809A9
:081F10000000000001020304BF
:081F1800E0E2FF7F0100000080
:041F2000AD01010806
:041F24008901010826
:0C1F28000024F400010000001000000084
:0400000508011E3D93
:00000001FF
